:0400000035EF7EF06A
:10FC5A00000E9EBA010E12009EAAFED7AE501200E6
:10FC6A00000EF86E00016BEF7EF0000E956E000E2E
:10FC7A00836E010E12008382030E016E980EE82E27
:10FC8A00FED7012EFCD783921200000E026E2DECD5
:10FC9A007EF00009D8B4120031EC7EF0026E40EC1E
:10FCAA007EF01200000E216E3AEC7EF0216E215099
:10FCBA00D8B412001DC00FF01EC010F01FC011F002
:10FCCA0020C012F0E6EC7EF0216E1200120E226EB7
:10FCDA007A0E236E000E246E000E256E22C01DF0D1
:10FCEA0023C01EF024C01FF025C020F057EC7EF080
:10FCFA004AEC7EF0FDD7000E0A6E08AE0AD0081E46
:10FD0A00071E061E056C000E062207220822010E97
:10FD1A000A6E04AE0AD0041E031E021E016C000EF7
:10FD2A00022203220422010E0A1A000E0B6E000E92
:10FD3A000C6E000E0D6E000E0E6E055006100710AA
:10FD4A000810D8B42AD0010E096E06D0D89005360C
:10FD5A00063607360836092A08AEF8D7D8900B3681
:10FD6A000C360D360E360550015C06500258075007
:10FD7A00035808500458D8A009D00550015E06500F
:10FD8A00025A0750035A0850045A0B80D890083276
:10FD9A00073206320532092EE1D70A50D8B408D004
:10FDAA000E1E0D1E0C1E0B6C000E0C220D220E22B6
:10FDBA000BC001F00CC002F00DC003F00EC004F03D
:10FDCA0012000FC013F010C014F011C015F012C0C9
:10FDDA0016F0060ED8901336143615361636E82E57
:10FDEA00F9D7131E141E151E161E132A000E1422EE
:10FDFA0015221622000E1324016E120E1420026E12
:10FE0A007A0E1520036E000E1620046E0FC017F02E
:10FE1A0010C018F011C019F012C01AF0060ED890CE
:10FE2A001736183619361A36E82EF9D717C005F0DC
:10FE3A0018C006F019C007F01AC008F080EC7EF06E
:10FE4A0001C01BF002C01CF01C04D8A044D00FC093
:10FE5A0013F010C014F011C015F012C016F0040E01
:10FE6A00D8901336143615361636E82EF9D7131EDF
:10FE7A00141E151E161E132A000E142215221622EF
:10FE8A00000E1324016E120E1420026E7A0E152033
:10FE9A00036E000E1620046E0FC017F010C018F083
:10FEAA0011C019F012C01AF0040ED890173618367D
:10FEBA0019361A36E82EF9D717C005F018C006F019
:10FECA0019C007F01AC008F080EC7EF001C01BF0E0
:10FEDA0002C01CF0AC841C04D8B00AD01BC0AFFF0F
:10FEEA00AC98AB8E948E948CAB88AC8A010E1200BF
:10FEFA00000E1200000800090009000A000A000B9F
:10FF0A00000C000C000D000E000F000F0010001175
:10FF1A00001200130015001600170018001A001C22
:10FF2A00001D001F00210023002500270029002CA6
:10FF3A00002E003100340037003A003E00410045EF
:10FF4A000049004E00520057005C00620068006ED3
:10FF5A000075007B0083008B0093009C00A500AF16
:10FF6A0000B900C400D000DC00E900F70006011562
:10FF7A0001260137014A015D01720188019F01B81A
:10FF8A0001D201EE010B022A024B026E029302BA5F
:10FF9A0002E40210033F037003A403DC03170455B1
:10FFAA00049704DD0427057505C80520067D06E0CB
:10FFBA00064907B8072D08A9082D09B9094D0AEA03
:10FFCA000A900B400CFA0CC00D910E6F0F5A105389
:10FFDA00115B1272139A14D41520178018F5198020
:10FFEA001B231DDE1EB420A622B524E4263429A72D
:06FFFA002B402E00310037
:020000040020DA
:08000000FFFFFFFFFFFFFFFF00
:020000040030CA
:0E000000FF02191EFF0181FF0FC00FE00F402D
:00000001FF
