:04000000A9EF7EF0F6
:10FD52000001B4EF7EF0000E9EBA010E12009EAAC0
:10FD6200FED7AE501200EBEC7EF0DEEC7EF0FDD75B
:10FD7200000E956E000E836E010E1200C8EC7EF02E
:10FD8200C8EC7EF0C8EC7EF0D2EC7EF0F7D783822E
:10FD9200030E016E980EE82EFED7012EFCD7839239
:10FDA20012000B0E026E260E016E5E0EE82EFED7BC
:10FDB200012EFCD7022EFAD71200000E026EACEC16
:10FDC2007EF00009D8B41200B0EC7EF0026EC8ECEE
:10FDD2007EF01200B9EC7EF00009D8B4BFEC7EF0E0
:10FDE200120E0F6E7A0E106E000E116E000E126E53
:10FDF20067EC7FF00009D8A41200BFEC7EF012007D
:10FE0200000E0A6E08AE0AD0081E071E061E056CFA
:10FE1200000E062207220822010E0A6E04AE0AD044
:10FE2200041E031E021E016C000E02220322042283
:10FE3200010E0A1A000E0B6E000E0C6E000E0D6EF5
:10FE4200000E0E6E0550061007100810D8B42AD006
:10FE5200010E096E06D0D8900536063607360836EA
:10FE6200092A08AEF8D7D8900B360C360D360E3666
:10FE72000550015C065002580750035808500458B8
:10FE8200D8A009D00550015E0650025A0750035A05
:10FE92000850045A0B80D8900832073206320532D5
:10FEA200092EE1D70A50D8B408D00E1E0D1E0C1E22
:10FEB2000B6C000E0C220D220E220BC001F00CC0A6
:10FEC20002F00DC003F00EC004F012000FC013F0D8
:10FED20010C014F011C015F012C016F0060ED89022
:10FEE2001336143615361636E82EF9D7131E141E9D
:10FEF200151E161E132A000E142215221622000E9B
:10FF02001324016E120E1420026E7A0E1520036E57
:10FF1200000E1620046E0FC017F010C018F011C0AA
:10FF220019F012C01AF0060ED89017361836193684
:10FF32001A36E82EF9D717C005F018C006F019C016
:10FF420007F01AC008F001EC7FF001C01BF002C0FC
:10FF52001CF01C04D8A044D00FC013F010C014F041
:10FF620011C015F012C016F0040ED89013361436D4
:10FF720015361636E82EF9D7131E141E151E161E38
:10FF8200132A000E142215221622000E1324016ECB
:10FF9200120E1420026E7A0E1520036E000E162029
:10FFA200046E0FC017F010C018F011C019F012C083
:10FFB2001AF0040ED8901736183619361A36E82E6B
:10FFC200F9D717C005F018C006F019C007F01AC01B
:10FFD20008F001EC7FF001C01BF002C01CF0AC8401
:10FFE2001C04D8B00AD01BC0AFFFAC98AB8E948E65
:0EFFF200948CAB88AC8A010E1200000E120037
:020000040020DA
:08000000FFFFFFFFFFFFFFFF00
:020000040030CA
:0E000000FF02191EFF0181FF0FC00FE00F402D
:00000001FF
